{
  "_format": "hh-sol-artifact-1",
  "contractName": "NFT",
  "sourceName": "contracts/NFT.sol",
  "abi": [
    {
      "inputs": [
        {
          "internalType": "address",
          "name": "marketplaceAddress",
          "type": "address"
        }
      ],
      "stateMutability": "nonpayable",
      "type": "constructor"
    },
    {
      "anonymous": false,
      "inputs": [
        {
          "indexed": true,
          "internalType": "address",
          "name": "owner",
          "type": "address"
        },
        {
          "indexed": true,
          "internalType": "address",
          "name": "approved",
          "type": "address"
        },
        {
          "indexed": true,
          "internalType": "uint256",
          "name": "tokenId",
          "type": "uint256"
        }
      ],
      "name": "Approval",
      "type": "event"
    },
    {
      "anonymous": false,
      "inputs": [
        {
          "indexed": true,
          "internalType": "address",
          "name": "owner",
          "type": "address"
        },
        {
          "indexed": true,
          "internalType": "address",
          "name": "operator",
          "type": "address"
        },
        {
          "indexed": false,
          "internalType": "bool",
          "name": "approved",
          "type": "bool"
        }
      ],
      "name": "ApprovalForAll",
      "type": "event"
    },
    {
      "anonymous": false,
      "inputs": [
        {
          "indexed": true,
          "internalType": "uint256",
          "name": "Itemid",
          "type": "uint256"
        }
      ],
      "name": "TokenMinted",
      "type": "event"
    },
    {
      "anonymous": false,
      "inputs": [
        {
          "indexed": true,
          "internalType": "address",
          "name": "from",
          "type": "address"
        },
        {
          "indexed": true,
          "internalType": "address",
          "name": "to",
          "type": "address"
        },
        {
          "indexed": true,
          "internalType": "uint256",
          "name": "tokenId",
          "type": "uint256"
        }
      ],
      "name": "Transfer",
      "type": "event"
    },
    {
      "inputs": [
        {
          "internalType": "address",
          "name": "to",
          "type": "address"
        },
        {
          "internalType": "uint256",
          "name": "tokenId",
          "type": "uint256"
        }
      ],
      "name": "approve",
      "outputs": [],
      "stateMutability": "nonpayable",
      "type": "function"
    },
    {
      "inputs": [
        {
          "internalType": "address",
          "name": "owner",
          "type": "address"
        }
      ],
      "name": "balanceOf",
      "outputs": [
        {
          "internalType": "uint256",
          "name": "",
          "type": "uint256"
        }
      ],
      "stateMutability": "view",
      "type": "function"
    },
    {
      "inputs": [
        {
          "internalType": "uint256",
          "name": "tokenId",
          "type": "uint256"
        }
      ],
      "name": "getApproved",
      "outputs": [
        {
          "internalType": "address",
          "name": "",
          "type": "address"
        }
      ],
      "stateMutability": "view",
      "type": "function"
    },
    {
      "inputs": [
        {
          "internalType": "address",
          "name": "owner",
          "type": "address"
        },
        {
          "internalType": "address",
          "name": "operator",
          "type": "address"
        }
      ],
      "name": "isApprovedForAll",
      "outputs": [
        {
          "internalType": "bool",
          "name": "",
          "type": "bool"
        }
      ],
      "stateMutability": "view",
      "type": "function"
    },
    {
      "inputs": [
        {
          "internalType": "string",
          "name": "tokenURI",
          "type": "string"
        }
      ],
      "name": "mintToken",
      "outputs": [
        {
          "internalType": "uint256",
          "name": "",
          "type": "uint256"
        }
      ],
      "stateMutability": "nonpayable",
      "type": "function"
    },
    {
      "inputs": [],
      "name": "name",
      "outputs": [
        {
          "internalType": "string",
          "name": "",
          "type": "string"
        }
      ],
      "stateMutability": "view",
      "type": "function"
    },
    {
      "inputs": [
        {
          "internalType": "uint256",
          "name": "tokenId",
          "type": "uint256"
        }
      ],
      "name": "ownerOf",
      "outputs": [
        {
          "internalType": "address",
          "name": "",
          "type": "address"
        }
      ],
      "stateMutability": "view",
      "type": "function"
    },
    {
      "inputs": [
        {
          "internalType": "address",
          "name": "from",
          "type": "address"
        },
        {
          "internalType": "address",
          "name": "to",
          "type": "address"
        },
        {
          "internalType": "uint256",
          "name": "tokenId",
          "type": "uint256"
        }
      ],
      "name": "safeTransferFrom",
      "outputs": [],
      "stateMutability": "nonpayable",
      "type": "function"
    },
    {
      "inputs": [
        {
          "internalType": "address",
          "name": "from",
          "type": "address"
        },
        {
          "internalType": "address",
          "name": "to",
          "type": "address"
        },
        {
          "internalType": "uint256",
          "name": "tokenId",
          "type": "uint256"
        },
        {
          "internalType": "bytes",
          "name": "_data",
          "type": "bytes"
        }
      ],
      "name": "safeTransferFrom",
      "outputs": [],
      "stateMutability": "nonpayable",
      "type": "function"
    },
    {
      "inputs": [
        {
          "internalType": "address",
          "name": "operator",
          "type": "address"
        },
        {
          "internalType": "bool",
          "name": "approved",
          "type": "bool"
        }
      ],
      "name": "setApprovalForAll",
      "outputs": [],
      "stateMutability": "nonpayable",
      "type": "function"
    },
    {
      "inputs": [
        {
          "internalType": "bytes4",
          "name": "interfaceId",
          "type": "bytes4"
        }
      ],
      "name": "supportsInterface",
      "outputs": [
        {
          "internalType": "bool",
          "name": "",
          "type": "bool"
        }
      ],
      "stateMutability": "view",
      "type": "function"
    },
    {
      "inputs": [],
      "name": "symbol",
      "outputs": [
        {
          "internalType": "string",
          "name": "",
          "type": "string"
        }
      ],
      "stateMutability": "view",
      "type": "function"
    },
    {
      "inputs": [
        {
          "internalType": "uint256",
          "name": "tokenId",
          "type": "uint256"
        }
      ],
      "name": "tokenURI",
      "outputs": [
        {
          "internalType": "string",
          "name": "",
          "type": "string"
        }
      ],
      "stateMutability": "view",
      "type": "function"
    },
    {
      "inputs": [
        {
          "internalType": "address",
          "name": "from",
          "type": "address"
        },
        {
          "internalType": "address",
          "name": "to",
          "type": "address"
        },
        {
          "internalType": "uint256",
          "name": "tokenId",
          "type": "uint256"
        }
      ],
      "name": "transferFrom",
      "outputs": [],
      "stateMutability": "nonpayable",
      "type": "function"
    }
  ],
  "bytecode": "0x60806040523480156200001157600080fd5b5060405162002eb538038062002eb58339818101604052810190620000379190620001e6565b6040518060400160405280600481526020017f536f6c6f000000000000000000000000000000000000000000000000000000008152506040518060400160405280600481526020017f534f4c4f000000000000000000000000000000000000000000000000000000008152508160009080519060200190620000bb9291906200011f565b508060019080519060200190620000d49291906200011f565b50505080600860006101000a81548173ffffffffffffffffffffffffffffffffffffffff021916908373ffffffffffffffffffffffffffffffffffffffff16021790555050620002c5565b8280546200012d9062000246565b90600052602060002090601f0160209004810192826200015157600085556200019d565b82601f106200016c57805160ff19168380011785556200019d565b828001600101855582156200019d579182015b828111156200019c5782518255916020019190600101906200017f565b5b509050620001ac9190620001b0565b5090565b5b80821115620001cb576000816000905550600101620001b1565b5090565b600081519050620001e081620002ab565b92915050565b600060208284031215620001f957600080fd5b60006200020984828501620001cf565b91505092915050565b60006200021f8262000226565b9050919050565b600073ffffffffffffffffffffffffffffffffffffffff82169050919050565b600060028204905060018216806200025f57607f821691505b602082108114156200027657620002756200027c565b5b50919050565b7f4e487b7100000000000000000000000000000000000000000000000000000000600052602260045260246000fd5b620002b68162000212565b8114620002c257600080fd5b50565b612be080620002d56000396000f3fe608060405234801561001057600080fd5b50600436106100ea5760003560e01c80636352211e1161008c578063a22cb46511610066578063a22cb4651461026f578063b88d4fde1461028b578063c87b56dd146102a7578063e985e9c5146102d7576100ea565b80636352211e146101f157806370a082311461022157806395d89b4114610251576100ea565b8063095ea7b3116100c8578063095ea7b31461016d57806323b872dd1461018957806333eba49a146101a557806342842e0e146101d5576100ea565b806301ffc9a7146100ef57806306fdde031461011f578063081812fc1461013d575b600080fd5b61010960048036038101906101049190611c4c565b610307565b6040516101169190612093565b60405180910390f35b6101276103e9565b60405161013491906120ae565b60405180910390f35b61015760048036038101906101529190611cdf565b61047b565b604051610164919061202c565b60405180910390f35b61018760048036038101906101829190611c10565b610500565b005b6101a3600480360381019061019e9190611b0a565b610618565b005b6101bf60048036038101906101ba9190611c9e565b610678565b6040516101cc91906122d0565b60405180910390f35b6101ef60048036038101906101ea9190611b0a565b610709565b005b61020b60048036038101906102069190611cdf565b610729565b604051610218919061202c565b60405180910390f35b61023b60048036038101906102369190611aa5565b6107db565b60405161024891906122d0565b60405180910390f35b610259610893565b60405161026691906120ae565b60405180910390f35b61028960048036038101906102849190611bd4565b610925565b005b6102a560048036038101906102a09190611b59565b61093b565b005b6102c160048036038101906102bc9190611cdf565b61099d565b6040516102ce91906120ae565b60405180910390f35b6102f160048036038101906102ec9190611ace565b610aef565b6040516102fe9190612093565b60405180910390f35b60007f80ac58cd000000000000000000000000000000000000000000000000000000007bffffffffffffffffffffffffffffffffffffffffffffffffffffffff1916827bffffffffffffffffffffffffffffffffffffffffffffffffffffffff191614806103d257507f5b5e139f000000000000000000000000000000000000000000000000000000007bffffffffffffffffffffffffffffffffffffffffffffffffffffffff1916827bffffffffffffffffffffffffffffffffffffffffffffffffffffffff1916145b806103e257506103e182610b83565b5b9050919050565b6060600080546103f890612526565b80601f016020809104026020016040519081016040528092919081815260200182805461042490612526565b80156104715780601f1061044657610100808354040283529160200191610471565b820191906000526020600020905b81548152906001019060200180831161045457829003601f168201915b5050505050905090565b600061048682610bed565b6104c5576040517f08c379a00000000000000000000000000000000000000000000000000000000081526004016104bc90612250565b60405180910390fd5b6004600083815260200190815260200160002060009054906101000a900473ffffffffffffffffffffffffffffffffffffffff169050919050565b600061050b82610729565b90508073ffffffffffffffffffffffffffffffffffffffff168373ffffffffffffffffffffffffffffffffffffffff16141561057c576040517f08c379a000000000000000000000000000000000000000000000000000000000815260040161057390612290565b60405180910390fd5b8073ffffffffffffffffffffffffffffffffffffffff1661059b610c59565b73ffffffffffffffffffffffffffffffffffffffff1614806105ca57506105c9816105c4610c59565b610aef565b5b610609576040517f08c379a000000000000000000000000000000000000000000000000000000000815260040161060090612190565b60405180910390fd5b6106138383610c61565b505050565b610629610623610c59565b82610d1a565b610668576040517f08c379a000000000000000000000000000000000000000000000000000000000815260040161065f906122b0565b60405180910390fd5b610673838383610df8565b505050565b6000610684600761105f565b60006106906007611075565b905061069c3382611083565b6106a6818461125d565b6106d3600860009054906101000a900473ffffffffffffffffffffffffffffffffffffffff166001610925565b807ff00d28232b285f24f2e38415deb2ceb31069e70d4505838b3911b4f02058502e60405160405180910390a280915050919050565b6107248383836040518060200160405280600081525061093b565b505050565b6000806002600084815260200190815260200160002060009054906101000a900473ffffffffffffffffffffffffffffffffffffffff169050600073ffffffffffffffffffffffffffffffffffffffff168173ffffffffffffffffffffffffffffffffffffffff1614156107d2576040517f08c379a00000000000000000000000000000000000000000000000000000000081526004016107c9906121d0565b60405180910390fd5b80915050919050565b60008073ffffffffffffffffffffffffffffffffffffffff168273ffffffffffffffffffffffffffffffffffffffff16141561084c576040517f08c379a0000000000000000000000000000000000000000000000000000000008152600401610843906121b0565b60405180910390fd5b600360008373ffffffffffffffffffffffffffffffffffffffff1673ffffffffffffffffffffffffffffffffffffffff168152602001908152602001600020549050919050565b6060600180546108a290612526565b80601f01602080910402602001604051908101604052809291908181526020018280546108ce90612526565b801561091b5780601f106108f05761010080835404028352916020019161091b565b820191906000526020600020905b8154815290600101906020018083116108fe57829003601f168201915b5050505050905090565b610937610930610c59565b83836112d1565b5050565b61094c610946610c59565b83610d1a565b61098b576040517f08c379a0000000000000000000000000000000000000000000000000000000008152600401610982906122b0565b60405180910390fd5b6109978484848461143e565b50505050565b60606109a882610bed565b6109e7576040517f08c379a00000000000000000000000000000000000000000000000000000000081526004016109de90612230565b60405180910390fd5b6000600660008481526020019081526020016000208054610a0790612526565b80601f0160208091040260200160405190810160405280929190818152602001828054610a3390612526565b8015610a805780601f10610a5557610100808354040283529160200191610a80565b820191906000526020600020905b815481529060010190602001808311610a6357829003601f168201915b505050505090506000610a9161149a565b9050600081511415610aa7578192505050610aea565b600082511115610adc578082604051602001610ac4929190612008565b60405160208183030381529060405292505050610aea565b610ae5846114b1565b925050505b919050565b6000600560008473ffffffffffffffffffffffffffffffffffffffff1673ffffffffffffffffffffffffffffffffffffffff16815260200190815260200160002060008373ffffffffffffffffffffffffffffffffffffffff1673ffffffffffffffffffffffffffffffffffffffff16815260200190815260200160002060009054906101000a900460ff16905092915050565b60007f01ffc9a7000000000000000000000000000000000000000000000000000000007bffffffffffffffffffffffffffffffffffffffffffffffffffffffff1916827bffffffffffffffffffffffffffffffffffffffffffffffffffffffff1916149050919050565b60008073ffffffffffffffffffffffffffffffffffffffff166002600084815260200190815260200160002060009054906101000a900473ffffffffffffffffffffffffffffffffffffffff1673ffffffffffffffffffffffffffffffffffffffff1614159050919050565b600033905090565b816004600083815260200190815260200160002060006101000a81548173ffffffffffffffffffffffffffffffffffffffff021916908373ffffffffffffffffffffffffffffffffffffffff160217905550808273ffffffffffffffffffffffffffffffffffffffff16610cd483610729565b73ffffffffffffffffffffffffffffffffffffffff167f8c5be1e5ebec7d5bd14f71427d1e84f3dd0314c0f7b2291e5b200ac8c7c3b92560405160405180910390a45050565b6000610d2582610bed565b610d64576040517f08c379a0000000000000000000000000000000000000000000000000000000008152600401610d5b90612170565b60405180910390fd5b6000610d6f83610729565b90508073ffffffffffffffffffffffffffffffffffffffff168473ffffffffffffffffffffffffffffffffffffffff161480610dde57508373ffffffffffffffffffffffffffffffffffffffff16610dc68461047b565b73ffffffffffffffffffffffffffffffffffffffff16145b80610def5750610dee8185610aef565b5b91505092915050565b8273ffffffffffffffffffffffffffffffffffffffff16610e1882610729565b73ffffffffffffffffffffffffffffffffffffffff1614610e6e576040517f08c379a0000000000000000000000000000000000000000000000000000000008152600401610e65906120f0565b60405180910390fd5b600073ffffffffffffffffffffffffffffffffffffffff168273ffffffffffffffffffffffffffffffffffffffff161415610ede576040517f08c379a0000000000000000000000000000000000000000000000000000000008152600401610ed590612130565b60405180910390fd5b610ee9838383611558565b610ef4600082610c61565b6001600360008573ffffffffffffffffffffffffffffffffffffffff1673ffffffffffffffffffffffffffffffffffffffff1681526020019081526020016000206000828254610f44919061243c565b925050819055506001600360008473ffffffffffffffffffffffffffffffffffffffff1673ffffffffffffffffffffffffffffffffffffffff1681526020019081526020016000206000828254610f9b91906123b5565b92505081905550816002600083815260200190815260200160002060006101000a81548173ffffffffffffffffffffffffffffffffffffffff021916908373ffffffffffffffffffffffffffffffffffffffff160217905550808273ffffffffffffffffffffffffffffffffffffffff168473ffffffffffffffffffffffffffffffffffffffff167fddf252ad1be2c89b69c2b068fc378daa952ba7f163c4a11628f55a4df523b3ef60405160405180910390a461105a83838361155d565b505050565b6001816000016000828254019250508190555050565b600081600001549050919050565b600073ffffffffffffffffffffffffffffffffffffffff168273ffffffffffffffffffffffffffffffffffffffff1614156110f3576040517f08c379a00000000000000000000000000000000000000000000000000000000081526004016110ea90612210565b60405180910390fd5b6110fc81610bed565b1561113c576040517f08c379a000000000000000000000000000000000000000000000000000000000815260040161113390612110565b60405180910390fd5b61114860008383611558565b6001600360008473ffffffffffffffffffffffffffffffffffffffff1673ffffffffffffffffffffffffffffffffffffffff168152602001908152602001600020600082825461119891906123b5565b92505081905550816002600083815260200190815260200160002060006101000a81548173ffffffffffffffffffffffffffffffffffffffff021916908373ffffffffffffffffffffffffffffffffffffffff160217905550808273ffffffffffffffffffffffffffffffffffffffff16600073ffffffffffffffffffffffffffffffffffffffff167fddf252ad1be2c89b69c2b068fc378daa952ba7f163c4a11628f55a4df523b3ef60405160405180910390a46112596000838361155d565b5050565b61126682610bed565b6112a5576040517f08c379a000000000000000000000000000000000000000000000000000000000815260040161129c906121f0565b60405180910390fd5b806006600084815260200190815260200160002090805190602001906112cc9291906118c9565b505050565b8173ffffffffffffffffffffffffffffffffffffffff168373ffffffffffffffffffffffffffffffffffffffff161415611340576040517f08c379a000000000000000000000000000000000000000000000000000000000815260040161133790612150565b60405180910390fd5b80600560008573ffffffffffffffffffffffffffffffffffffffff1673ffffffffffffffffffffffffffffffffffffffff16815260200190815260200160002060008473ffffffffffffffffffffffffffffffffffffffff1673ffffffffffffffffffffffffffffffffffffffff16815260200190815260200160002060006101000a81548160ff0219169083151502179055508173ffffffffffffffffffffffffffffffffffffffff168373ffffffffffffffffffffffffffffffffffffffff167f17307eab39ab6107e8899845ad3d59bd9653f200f220920489ca2b5937696c31836040516114319190612093565b60405180910390a3505050565b611449848484610df8565b61145584848484611562565b611494576040517f08c379a000000000000000000000000000000000000000000000000000000000815260040161148b906120d0565b60405180910390fd5b50505050565b606060405180602001604052806000815250905090565b60606114bc82610bed565b6114fb576040517f08c379a00000000000000000000000000000000000000000000000000000000081526004016114f290612270565b60405180910390fd5b600061150561149a565b905060008151116115255760405180602001604052806000815250611550565b8061152f846116f9565b604051602001611540929190612008565b6040516020818303038152906040525b915050919050565b505050565b505050565b60006115838473ffffffffffffffffffffffffffffffffffffffff166118a6565b156116ec578373ffffffffffffffffffffffffffffffffffffffff1663150b7a026115ac610c59565b8786866040518563ffffffff1660e01b81526004016115ce9493929190612047565b602060405180830381600087803b1580156115e857600080fd5b505af192505050801561161957506040513d601f19601f820116820180604052508101906116169190611c75565b60015b61169c573d8060008114611649576040519150601f19603f3d011682016040523d82523d6000602084013e61164e565b606091505b50600081511415611694576040517f08c379a000000000000000000000000000000000000000000000000000000000815260040161168b906120d0565b60405180910390fd5b805181602001fd5b63150b7a0260e01b7bffffffffffffffffffffffffffffffffffffffffffffffffffffffff1916817bffffffffffffffffffffffffffffffffffffffffffffffffffffffff1916149150506116f1565b600190505b949350505050565b60606000821415611741576040518060400160405280600181526020017f300000000000000000000000000000000000000000000000000000000000000081525090506118a1565b600082905060005b6000821461177357808061175c90612589565b915050600a8261176c919061240b565b9150611749565b60008167ffffffffffffffff8111156117b5577f4e487b7100000000000000000000000000000000000000000000000000000000600052604160045260246000fd5b6040519080825280601f01601f1916602001820160405280156117e75781602001600182028036833780820191505090505b5090505b6000851461189a57600182611800919061243c565b9150600a8561180f91906125d2565b603061181b91906123b5565b60f81b818381518110611857577f4e487b7100000000000000000000000000000000000000000000000000000000600052603260045260246000fd5b60200101907effffffffffffffffffffffffffffffffffffffffffffffffffffffffffffff1916908160001a905350600a85611893919061240b565b94506117eb565b8093505050505b919050565b6000808273ffffffffffffffffffffffffffffffffffffffff163b119050919050565b8280546118d590612526565b90600052602060002090601f0160209004810192826118f7576000855561193e565b82601f1061191057805160ff191683800117855561193e565b8280016001018555821561193e579182015b8281111561193d578251825591602001919060010190611922565b5b50905061194b919061194f565b5090565b5b80821115611968576000816000905550600101611950565b5090565b600061197f61197a84612310565b6122eb565b90508281526020810184848401111561199757600080fd5b6119a28482856124e4565b509392505050565b60006119bd6119b884612341565b6122eb565b9050828152602081018484840111156119d557600080fd5b6119e08482856124e4565b509392505050565b6000813590506119f781612b4e565b92915050565b600081359050611a0c81612b65565b92915050565b600081359050611a2181612b7c565b92915050565b600081519050611a3681612b7c565b92915050565b600082601f830112611a4d57600080fd5b8135611a5d84826020860161196c565b91505092915050565b600082601f830112611a7757600080fd5b8135611a878482602086016119aa565b91505092915050565b600081359050611a9f81612b93565b92915050565b600060208284031215611ab757600080fd5b6000611ac5848285016119e8565b91505092915050565b60008060408385031215611ae157600080fd5b6000611aef858286016119e8565b9250506020611b00858286016119e8565b9150509250929050565b600080600060608486031215611b1f57600080fd5b6000611b2d868287016119e8565b9350506020611b3e868287016119e8565b9250506040611b4f86828701611a90565b9150509250925092565b60008060008060808587031215611b6f57600080fd5b6000611b7d878288016119e8565b9450506020611b8e878288016119e8565b9350506040611b9f87828801611a90565b925050606085013567ffffffffffffffff811115611bbc57600080fd5b611bc887828801611a3c565b91505092959194509250565b60008060408385031215611be757600080fd5b6000611bf5858286016119e8565b9250506020611c06858286016119fd565b9150509250929050565b60008060408385031215611c2357600080fd5b6000611c31858286016119e8565b9250506020611c4285828601611a90565b9150509250929050565b600060208284031215611c5e57600080fd5b6000611c6c84828501611a12565b91505092915050565b600060208284031215611c8757600080fd5b6000611c9584828501611a27565b91505092915050565b600060208284031215611cb057600080fd5b600082013567ffffffffffffffff811115611cca57600080fd5b611cd684828501611a66565b91505092915050565b600060208284031215611cf157600080fd5b6000611cff84828501611a90565b91505092915050565b611d1181612470565b82525050565b611d2081612482565b82525050565b6000611d3182612372565b611d3b8185612388565b9350611d4b8185602086016124f3565b611d54816126bf565b840191505092915050565b6000611d6a8261237d565b611d748185612399565b9350611d848185602086016124f3565b611d8d816126bf565b840191505092915050565b6000611da38261237d565b611dad81856123aa565b9350611dbd8185602086016124f3565b80840191505092915050565b6000611dd6603283612399565b9150611de1826126d0565b604082019050919050565b6000611df9602583612399565b9150611e048261271f565b604082019050919050565b6000611e1c601c83612399565b9150611e278261276e565b602082019050919050565b6000611e3f602483612399565b9150611e4a82612797565b604082019050919050565b6000611e62601983612399565b9150611e6d826127e6565b602082019050919050565b6000611e85602c83612399565b9150611e908261280f565b604082019050919050565b6000611ea8603883612399565b9150611eb38261285e565b604082019050919050565b6000611ecb602a83612399565b9150611ed6826128ad565b604082019050919050565b6000611eee602983612399565b9150611ef9826128fc565b604082019050919050565b6000611f11602e83612399565b9150611f1c8261294b565b604082019050919050565b6000611f34602083612399565b9150611f3f8261299a565b602082019050919050565b6000611f57603183612399565b9150611f62826129c3565b604082019050919050565b6000611f7a602c83612399565b9150611f8582612a12565b604082019050919050565b6000611f9d602f83612399565b9150611fa882612a61565b604082019050919050565b6000611fc0602183612399565b9150611fcb82612ab0565b604082019050919050565b6000611fe3603183612399565b9150611fee82612aff565b604082019050919050565b612002816124da565b82525050565b60006120148285611d98565b91506120208284611d98565b91508190509392505050565b60006020820190506120416000830184611d08565b92915050565b600060808201905061205c6000830187611d08565b6120696020830186611d08565b6120766040830185611ff9565b81810360608301526120888184611d26565b905095945050505050565b60006020820190506120a86000830184611d17565b92915050565b600060208201905081810360008301526120c88184611d5f565b905092915050565b600060208201905081810360008301526120e981611dc9565b9050919050565b6000602082019050818103600083015261210981611dec565b9050919050565b6000602082019050818103600083015261212981611e0f565b9050919050565b6000602082019050818103600083015261214981611e32565b9050919050565b6000602082019050818103600083015261216981611e55565b9050919050565b6000602082019050818103600083015261218981611e78565b9050919050565b600060208201905081810360008301526121a981611e9b565b9050919050565b600060208201905081810360008301526121c981611ebe565b9050919050565b600060208201905081810360008301526121e981611ee1565b9050919050565b6000602082019050818103600083015261220981611f04565b9050919050565b6000602082019050818103600083015261222981611f27565b9050919050565b6000602082019050818103600083015261224981611f4a565b9050919050565b6000602082019050818103600083015261226981611f6d565b9050919050565b6000602082019050818103600083015261228981611f90565b9050919050565b600060208201905081810360008301526122a981611fb3565b9050919050565b600060208201905081810360008301526122c981611fd6565b9050919050565b60006020820190506122e56000830184611ff9565b92915050565b60006122f5612306565b90506123018282612558565b919050565b6000604051905090565b600067ffffffffffffffff82111561232b5761232a612690565b5b612334826126bf565b9050602081019050919050565b600067ffffffffffffffff82111561235c5761235b612690565b5b612365826126bf565b9050602081019050919050565b600081519050919050565b600081519050919050565b600082825260208201905092915050565b600082825260208201905092915050565b600081905092915050565b60006123c0826124da565b91506123cb836124da565b9250827fffffffffffffffffffffffffffffffffffffffffffffffffffffffffffffffff03821115612400576123ff612603565b5b828201905092915050565b6000612416826124da565b9150612421836124da565b92508261243157612430612632565b5b828204905092915050565b6000612447826124da565b9150612452836124da565b92508282101561246557612464612603565b5b828203905092915050565b600061247b826124ba565b9050919050565b60008115159050919050565b60007fffffffff0000000000000000000000000000000000000000000000000000000082169050919050565b600073ffffffffffffffffffffffffffffffffffffffff82169050919050565b6000819050919050565b82818337600083830152505050565b60005b838110156125115780820151818401526020810190506124f6565b83811115612520576000848401525b50505050565b6000600282049050600182168061253e57607f821691505b6020821081141561255257612551612661565b5b50919050565b612561826126bf565b810181811067ffffffffffffffff821117156125805761257f612690565b5b80604052505050565b6000612594826124da565b91507fffffffffffffffffffffffffffffffffffffffffffffffffffffffffffffffff8214156125c7576125c6612603565b5b600182019050919050565b60006125dd826124da565b91506125e8836124da565b9250826125f8576125f7612632565b5b828206905092915050565b7f4e487b7100000000000000000000000000000000000000000000000000000000600052601160045260246000fd5b7f4e487b7100000000000000000000000000000000000000000000000000000000600052601260045260246000fd5b7f4e487b7100000000000000000000000000000000000000000000000000000000600052602260045260246000fd5b7f4e487b7100000000000000000000000000000000000000000000000000000000600052604160045260246000fd5b6000601f19601f8301169050919050565b7f4552433732313a207472616e7366657220746f206e6f6e20455243373231526560008201527f63656976657220696d706c656d656e7465720000000000000000000000000000602082015250565b7f4552433732313a207472616e736665722066726f6d20696e636f72726563742060008201527f6f776e6572000000000000000000000000000000000000000000000000000000602082015250565b7f4552433732313a20746f6b656e20616c7265616479206d696e74656400000000600082015250565b7f4552433732313a207472616e7366657220746f20746865207a65726f2061646460008201527f7265737300000000000000000000000000000000000000000000000000000000602082015250565b7f4552433732313a20617070726f766520746f2063616c6c657200000000000000600082015250565b7f4552433732313a206f70657261746f7220717565727920666f72206e6f6e657860008201527f697374656e7420746f6b656e0000000000000000000000000000000000000000602082015250565b7f4552433732313a20617070726f76652063616c6c6572206973206e6f74206f7760008201527f6e6572206e6f7220617070726f76656420666f7220616c6c0000000000000000602082015250565b7f4552433732313a2062616c616e636520717565727920666f7220746865207a6560008201527f726f206164647265737300000000000000000000000000000000000000000000602082015250565b7f4552433732313a206f776e657220717565727920666f72206e6f6e657869737460008201527f656e7420746f6b656e0000000000000000000000000000000000000000000000602082015250565b7f45524337323155524953746f726167653a2055524920736574206f66206e6f6e60008201527f6578697374656e7420746f6b656e000000000000000000000000000000000000602082015250565b7f4552433732313a206d696e7420746f20746865207a65726f2061646472657373600082015250565b7f45524337323155524953746f726167653a2055524920717565727920666f722060008201527f6e6f6e6578697374656e7420746f6b656e000000000000000000000000000000602082015250565b7f4552433732313a20617070726f76656420717565727920666f72206e6f6e657860008201527f697374656e7420746f6b656e0000000000000000000000000000000000000000602082015250565b7f4552433732314d657461646174613a2055524920717565727920666f72206e6f60008201527f6e6578697374656e7420746f6b656e0000000000000000000000000000000000602082015250565b7f4552433732313a20617070726f76616c20746f2063757272656e74206f776e6560008201527f7200000000000000000000000000000000000000000000000000000000000000602082015250565b7f4552433732313a207472616e736665722063616c6c6572206973206e6f74206f60008201527f776e6572206e6f7220617070726f766564000000000000000000000000000000602082015250565b612b5781612470565b8114612b6257600080fd5b50565b612b6e81612482565b8114612b7957600080fd5b50565b612b858161248e565b8114612b9057600080fd5b50565b612b9c816124da565b8114612ba757600080fd5b5056fea26469706673582212207f07a02e41c3923d2391ca355b69e56ebe5dcc213e5f7a4a54cd4a0508c71a1564736f6c63430008040033",
  "linkReferences": {},
  "deployedLinkReferences": {}
}