{
  "_format": "hh-sol-artifact-1",
  "contractName": "MarketPlace",
  "sourceName": "contracts/MarketPlace.sol",
  "abi": [
    {
      "inputs": [],
      "stateMutability": "nonpayable",
      "type": "constructor"
    },
    {
      "anonymous": false,
      "inputs": [
        {
          "indexed": true,
          "internalType": "uint256",
          "name": "itemId",
          "type": "uint256"
        },
        {
          "indexed": true,
          "internalType": "address",
          "name": "nftContract",
          "type": "address"
        },
        {
          "indexed": true,
          "internalType": "uint256",
          "name": "tokenId",
          "type": "uint256"
        },
        {
          "indexed": false,
          "internalType": "address",
          "name": "seller",
          "type": "address"
        },
        {
          "indexed": false,
          "internalType": "address",
          "name": "owner",
          "type": "address"
        },
        {
          "indexed": false,
          "internalType": "uint256",
          "name": "price",
          "type": "uint256"
        },
        {
          "indexed": false,
          "internalType": "bool",
          "name": "sold",
          "type": "bool"
        }
      ],
      "name": "MarketTokenMinted",
      "type": "event"
    },
    {
      "inputs": [
        {
          "internalType": "address",
          "name": "nftContract",
          "type": "address"
        },
        {
          "internalType": "uint256",
          "name": "tokenId",
          "type": "uint256"
        },
        {
          "internalType": "uint256",
          "name": "price",
          "type": "uint256"
        }
      ],
      "name": "createMarketOrder",
      "outputs": [],
      "stateMutability": "payable",
      "type": "function"
    },
    {
      "inputs": [],
      "name": "fetchItemsCreated",
      "outputs": [
        {
          "components": [
            {
              "internalType": "uint256",
              "name": "itemId",
              "type": "uint256"
            },
            {
              "internalType": "address",
              "name": "nftContract",
              "type": "address"
            },
            {
              "internalType": "uint256",
              "name": "tokenId",
              "type": "uint256"
            },
            {
              "internalType": "address",
              "name": "seller",
              "type": "address"
            },
            {
              "internalType": "address",
              "name": "owner",
              "type": "address"
            },
            {
              "internalType": "uint256",
              "name": "price",
              "type": "uint256"
            },
            {
              "internalType": "bool",
              "name": "sold",
              "type": "bool"
            }
          ],
          "internalType": "struct MarketPlace.MarketToken[]",
          "name": "",
          "type": "tuple[]"
        }
      ],
      "stateMutability": "view",
      "type": "function"
    },
    {
      "inputs": [],
      "name": "fetchTokens",
      "outputs": [
        {
          "components": [
            {
              "internalType": "uint256",
              "name": "itemId",
              "type": "uint256"
            },
            {
              "internalType": "address",
              "name": "nftContract",
              "type": "address"
            },
            {
              "internalType": "uint256",
              "name": "tokenId",
              "type": "uint256"
            },
            {
              "internalType": "address",
              "name": "seller",
              "type": "address"
            },
            {
              "internalType": "address",
              "name": "owner",
              "type": "address"
            },
            {
              "internalType": "uint256",
              "name": "price",
              "type": "uint256"
            },
            {
              "internalType": "bool",
              "name": "sold",
              "type": "bool"
            }
          ],
          "internalType": "struct MarketPlace.MarketToken[]",
          "name": "",
          "type": "tuple[]"
        }
      ],
      "stateMutability": "view",
      "type": "function"
    },
    {
      "inputs": [],
      "name": "fetchUserCollections",
      "outputs": [
        {
          "components": [
            {
              "internalType": "uint256",
              "name": "itemId",
              "type": "uint256"
            },
            {
              "internalType": "address",
              "name": "nftContract",
              "type": "address"
            },
            {
              "internalType": "uint256",
              "name": "tokenId",
              "type": "uint256"
            },
            {
              "internalType": "address",
              "name": "seller",
              "type": "address"
            },
            {
              "internalType": "address",
              "name": "owner",
              "type": "address"
            },
            {
              "internalType": "uint256",
              "name": "price",
              "type": "uint256"
            },
            {
              "internalType": "bool",
              "name": "sold",
              "type": "bool"
            }
          ],
          "internalType": "struct MarketPlace.MarketToken[]",
          "name": "",
          "type": "tuple[]"
        }
      ],
      "stateMutability": "view",
      "type": "function"
    },
    {
      "inputs": [],
      "name": "getListingPrice",
      "outputs": [
        {
          "internalType": "uint256",
          "name": "",
          "type": "uint256"
        }
      ],
      "stateMutability": "view",
      "type": "function"
    },
    {
      "inputs": [
        {
          "internalType": "address",
          "name": "nftContract",
          "type": "address"
        },
        {
          "internalType": "uint256",
          "name": "_itemId",
          "type": "uint256"
        }
      ],
      "name": "sell",
      "outputs": [],
      "stateMutability": "payable",
      "type": "function"
    }
  ],
  "bytecode": "0x608060405234801561001057600080fd5b50600160008190555033600360006101000a81548173ffffffffffffffffffffffffffffffffffffffff021916908373ffffffffffffffffffffffffffffffffffffffff160217905550669fdf42f6e48000600481905550611987806100776000396000f3fe6080604052600436106100555760003560e01c806312e855851461005a5780631f539de3146100855780635ae821d4146100b05780636c197ff5146100cc578063cd84f597146100e8578063f064c32e14610113575b600080fd5b34801561006657600080fd5b5061006f61013e565b60405161007c91906116aa565b60405180910390f35b34801561009157600080fd5b5061009a610148565b6040516100a79190611608565b60405180910390f35b6100ca60048036038101906100c59190611353565b6104ea565b005b6100e660048036038101906100e19190611317565b61084e565b005b3480156100f457600080fd5b506100fd610bb3565b60405161010a9190611608565b60405180910390f35b34801561011f57600080fd5b50610128610ebc565b6040516101359190611608565b60405180910390f35b6000600454905090565b606060006101566001611248565b905060008060005b838110156101fe573373ffffffffffffffffffffffffffffffffffffffff166005600060018461018e919061170f565b815260200190815260200160002060040160009054906101000a900473ffffffffffffffffffffffffffffffffffffffff1673ffffffffffffffffffffffffffffffffffffffff1614156101eb5782806101e7906117e1565b9350505b80806101f6906117e1565b91505061015e565b5060008267ffffffffffffffff811115610241577f4e487b7100000000000000000000000000000000000000000000000000000000600052604160045260246000fd5b60405190808252806020026020018201604052801561027a57816020015b61026761126c565b81526020019060019003908161025f5790505b50905060005b848110156104df573373ffffffffffffffffffffffffffffffffffffffff16600560006001846102b0919061170f565b815260200190815260200160002060040160009054906101000a900473ffffffffffffffffffffffffffffffffffffffff1673ffffffffffffffffffffffffffffffffffffffff1614156104cc576005600060056000600185610313919061170f565b81526020019081526020016000206000015481526020019081526020016000206040518060e0016040529081600082015481526020016001820160009054906101000a900473ffffffffffffffffffffffffffffffffffffffff1673ffffffffffffffffffffffffffffffffffffffff1673ffffffffffffffffffffffffffffffffffffffff168152602001600282015481526020016003820160009054906101000a900473ffffffffffffffffffffffffffffffffffffffff1673ffffffffffffffffffffffffffffffffffffffff1673ffffffffffffffffffffffffffffffffffffffff1681526020016004820160009054906101000a900473ffffffffffffffffffffffffffffffffffffffff1673ffffffffffffffffffffffffffffffffffffffff1673ffffffffffffffffffffffffffffffffffffffff168152602001600582015481526020016006820160009054906101000a900460ff1615151515815250508284815181106104b2577f4e487b7100000000000000000000000000000000000000000000000000000000600052603260045260246000fd5b602002602001018190525082806104c8906117e1565b9350505b80806104d7906117e1565b915050610280565b508094505050505090565b60026000541415610530576040517f08c379a00000000000000000000000000000000000000000000000000000000081526004016105279061168a565b60405180910390fd5b60026000819055506000811161057b576040517f08c379a00000000000000000000000000000000000000000000000000000000081526004016105729061164a565b60405180910390fd5b60045434146105bf576040517f08c379a00000000000000000000000000000000000000000000000000000000081526004016105b69061166a565b60405180910390fd5b6105c96001611256565b60006105d56001611248565b90506040518060e001604052808281526020018573ffffffffffffffffffffffffffffffffffffffff1681526020018481526020013373ffffffffffffffffffffffffffffffffffffffff168152602001600073ffffffffffffffffffffffffffffffffffffffff16815260200183815260200160001515815250600560008381526020019081526020016000206000820151816000015560208201518160010160006101000a81548173ffffffffffffffffffffffffffffffffffffffff021916908373ffffffffffffffffffffffffffffffffffffffff1602179055506040820151816002015560608201518160030160006101000a81548173ffffffffffffffffffffffffffffffffffffffff021916908373ffffffffffffffffffffffffffffffffffffffff16021790555060808201518160040160006101000a81548173ffffffffffffffffffffffffffffffffffffffff021916908373ffffffffffffffffffffffffffffffffffffffff16021790555060a0820151816005015560c08201518160060160006101000a81548160ff0219169083151502179055509050508373ffffffffffffffffffffffffffffffffffffffff166323b872dd3330866040518463ffffffff1660e01b81526004016107b69392919061158c565b600060405180830381600087803b1580156107d057600080fd5b505af11580156107e4573d6000803e3d6000fd5b50505050828473ffffffffffffffffffffffffffffffffffffffff16827fcd9b0dfebab7db4dbe70606f69fadc8e987e7c80a65410f0bb5ae8bd72dabba733600087600060405161083894939291906115c3565b60405180910390a4506001600081905550505050565b60026000541415610894576040517f08c379a000000000000000000000000000000000000000000000000000000000815260040161088b9061168a565b60405180910390fd5b600260008190555060006005600083815260200190815260200160002060030160009054906101000a900473ffffffffffffffffffffffffffffffffffffffff1690508073ffffffffffffffffffffffffffffffffffffffff163373ffffffffffffffffffffffffffffffffffffffff161415610946576040517f08c379a000000000000000000000000000000000000000000000000000000000815260040161093d9061162a565b60405180910390fd5b600060056000848152602001908152602001600020600501549050600060056000858152602001908152602001600020600201549050813410156109bf576040517f08c379a00000000000000000000000000000000000000000000000000000000081526004016109b69061164a565b60405180910390fd5b6005600085815260200190815260200160002060030160009054906101000a900473ffffffffffffffffffffffffffffffffffffffff1673ffffffffffffffffffffffffffffffffffffffff166108fc349081150290604051600060405180830381858888f19350505050158015610a3b573d6000803e3d6000fd5b508473ffffffffffffffffffffffffffffffffffffffff166323b872dd3033846040518463ffffffff1660e01b8152600401610a799392919061158c565b600060405180830381600087803b158015610a9357600080fd5b505af1158015610aa7573d6000803e3d6000fd5b50505050336005600086815260200190815260200160002060040160006101000a81548173ffffffffffffffffffffffffffffffffffffffff021916908373ffffffffffffffffffffffffffffffffffffffff16021790555060016005600086815260200190815260200160002060060160006101000a81548160ff021916908315150217905550610b396002611256565b600360009054906101000a900473ffffffffffffffffffffffffffffffffffffffff1673ffffffffffffffffffffffffffffffffffffffff166108fc6004549081150290604051600060405180830381858888f19350505050158015610ba3573d6000803e3d6000fd5b5050505060016000819055505050565b60606000610bc16001611248565b90506000610bcf6002611248565b610bd96001611248565b610be39190611765565b90506000808267ffffffffffffffff811115610c28577f4e487b7100000000000000000000000000000000000000000000000000000000600052604160045260246000fd5b604051908082528060200260200182016040528015610c6157816020015b610c4e61126c565b815260200190600190039081610c465790505b50905060005b84811015610eb157600073ffffffffffffffffffffffffffffffffffffffff1660056000600184610c98919061170f565b815260200190815260200160002060040160009054906101000a900473ffffffffffffffffffffffffffffffffffffffff1673ffffffffffffffffffffffffffffffffffffffff161415610e9e5760056000600183610cf7919061170f565b81526020019081526020016000206040518060e0016040529081600082015481526020016001820160009054906101000a900473ffffffffffffffffffffffffffffffffffffffff1673ffffffffffffffffffffffffffffffffffffffff1673ffffffffffffffffffffffffffffffffffffffff168152602001600282015481526020016003820160009054906101000a900473ffffffffffffffffffffffffffffffffffffffff1673ffffffffffffffffffffffffffffffffffffffff1673ffffffffffffffffffffffffffffffffffffffff1681526020016004820160009054906101000a900473ffffffffffffffffffffffffffffffffffffffff1673ffffffffffffffffffffffffffffffffffffffff1673ffffffffffffffffffffffffffffffffffffffff168152602001600582015481526020016006820160009054906101000a900460ff161515151581525050828481518110610e84577f4e487b7100000000000000000000000000000000000000000000000000000000600052603260045260246000fd5b60200260200101819052508280610e9a906117e1565b9350505b8080610ea9906117e1565b915050610c67565b508094505050505090565b60606000610eca6001611248565b905060008060005b83811015610f72573373ffffffffffffffffffffffffffffffffffffffff1660056000600184610f02919061170f565b815260200190815260200160002060030160009054906101000a900473ffffffffffffffffffffffffffffffffffffffff1673ffffffffffffffffffffffffffffffffffffffff161415610f5f578280610f5b906117e1565b9350505b8080610f6a906117e1565b915050610ed2565b5060008267ffffffffffffffff811115610fb5577f4e487b7100000000000000000000000000000000000000000000000000000000600052604160045260246000fd5b604051908082528060200260200182016040528015610fee57816020015b610fdb61126c565b815260200190600190039081610fd35790505b50905060005b8481101561123d573373ffffffffffffffffffffffffffffffffffffffff1660056000600184611024919061170f565b815260200190815260200160002060030160009054906101000a900473ffffffffffffffffffffffffffffffffffffffff1673ffffffffffffffffffffffffffffffffffffffff16141561122a5760056000600183611083919061170f565b81526020019081526020016000206040518060e0016040529081600082015481526020016001820160009054906101000a900473ffffffffffffffffffffffffffffffffffffffff1673ffffffffffffffffffffffffffffffffffffffff1673ffffffffffffffffffffffffffffffffffffffff168152602001600282015481526020016003820160009054906101000a900473ffffffffffffffffffffffffffffffffffffffff1673ffffffffffffffffffffffffffffffffffffffff1673ffffffffffffffffffffffffffffffffffffffff1681526020016004820160009054906101000a900473ffffffffffffffffffffffffffffffffffffffff1673ffffffffffffffffffffffffffffffffffffffff1673ffffffffffffffffffffffffffffffffffffffff168152602001600582015481526020016006820160009054906101000a900460ff161515151581525050828481518110611210577f4e487b7100000000000000000000000000000000000000000000000000000000600052603260045260246000fd5b60200260200101819052508280611226906117e1565b9350505b8080611235906117e1565b915050610ff4565b508094505050505090565b600081600001549050919050565b6001816000016000828254019250508190555050565b6040518060e0016040528060008152602001600073ffffffffffffffffffffffffffffffffffffffff16815260200160008152602001600073ffffffffffffffffffffffffffffffffffffffff168152602001600073ffffffffffffffffffffffffffffffffffffffff168152602001600081526020016000151581525090565b6000813590506112fc81611923565b92915050565b6000813590506113118161193a565b92915050565b6000806040838503121561132a57600080fd5b6000611338858286016112ed565b925050602061134985828601611302565b9150509250929050565b60008060006060848603121561136857600080fd5b6000611376868287016112ed565b935050602061138786828701611302565b925050604061139886828701611302565b9150509250925092565b60006113ae83836114e0565b60e08301905092915050565b6113c381611799565b82525050565b6113d281611799565b82525050565b60006113e3826116d5565b6113ed81856116ed565b93506113f8836116c5565b8060005b8381101561142957815161141088826113a2565b975061141b836116e0565b9250506001810190506113fc565b5085935050505092915050565b61143f816117ab565b82525050565b61144e816117ab565b82525050565b6000611461601a836116fe565b915061146c82611859565b602082019050919050565b6000611484600d836116fe565b915061148f82611882565b602082019050919050565b60006114a76024836116fe565b91506114b2826118ab565b604082019050919050565b60006114ca601f836116fe565b91506114d5826118fa565b602082019050919050565b60e0820160008201516114f6600085018261156e565b50602082015161150960208501826113ba565b50604082015161151c604085018261156e565b50606082015161152f60608501826113ba565b50608082015161154260808501826113ba565b5060a082015161155560a085018261156e565b5060c082015161156860c0850182611436565b50505050565b611577816117d7565b82525050565b611586816117d7565b82525050565b60006060820190506115a160008301866113c9565b6115ae60208301856113c9565b6115bb604083018461157d565b949350505050565b60006080820190506115d860008301876113c9565b6115e560208301866113c9565b6115f2604083018561157d565b6115ff6060830184611445565b95945050505050565b6000602082019050818103600083015261162281846113d8565b905092915050565b6000602082019050818103600083015261164381611454565b9050919050565b6000602082019050818103600083015261166381611477565b9050919050565b600060208201905081810360008301526116838161149a565b9050919050565b600060208201905081810360008301526116a3816114bd565b9050919050565b60006020820190506116bf600083018461157d565b92915050565b6000819050602082019050919050565b600081519050919050565b6000602082019050919050565b600082825260208201905092915050565b600082825260208201905092915050565b600061171a826117d7565b9150611725836117d7565b9250827fffffffffffffffffffffffffffffffffffffffffffffffffffffffffffffffff0382111561175a5761175961182a565b5b828201905092915050565b6000611770826117d7565b915061177b836117d7565b92508282101561178e5761178d61182a565b5b828203905092915050565b60006117a4826117b7565b9050919050565b60008115159050919050565b600073ffffffffffffffffffffffffffffffffffffffff82169050919050565b6000819050919050565b60006117ec826117d7565b91507fffffffffffffffffffffffffffffffffffffffffffffffffffffffffffffffff82141561181f5761181e61182a565b5b600182019050919050565b7f4e487b7100000000000000000000000000000000000000000000000000000000600052601160045260246000fd5b7f596f75722061726520616c726561647920746865206f776e6572000000000000600082015250565b7f696e76616c696420707269636500000000000000000000000000000000000000600082015250565b7f5072696365206d75737420626520657175616c20746f206c697374696e67207060008201527f7269636500000000000000000000000000000000000000000000000000000000602082015250565b7f5265656e7472616e637947756172643a207265656e7472616e742063616c6c00600082015250565b61192c81611799565b811461193757600080fd5b50565b611943816117d7565b811461194e57600080fd5b5056fea264697066735822122089285390aa3b742cf24cb6778e298385e5bbf6497bfd5b3e6762254be549991464736f6c63430008040033",
  "linkReferences": {},
  "deployedLinkReferences": {}
}